:020000000C945E
:1000020033000C9400000C9400000C9400000C943B
:1000120000000C9400000C9400000C9400000C945E
:1000220000000C9400000C9400000C9400000C944E
:1000320000000C9400000C9400000C9400000C943E
:1000420000000C9400000C9400000C9400000C942E
:1000520000005468697320697320612074657374A9
:100062002E000000F894EE27ECBBF1E0FBBFEBBFE3
:10007200E5BFF8E1F1BDE1BD8DE0A2E0BB27ED9364
:100082008A95E9F780E094E0A0E6ED930197E9F71D
:10009200E4E6F0E085919591009761F0A591B59124
:1000A20005901590BF01F00105900D920197E1F7BF
:1000B200FB01F0CFEFE5EDBFE4E0EEBFC0E6D1E03B
:1000C2000C946300609780E1A0E0B0E0E4E5F0E02A
:1000D2000E94AA00E0E0EBBBEFEFEABBE0E0E8BB86
:1000E200EFEFE7BBE0E3EA9318D0EEE0EA9315D036
:1000F200E1E0EA9312D000E010E00F30E0E01E07EA
:100102004CF4DE01A00FB11FEC91EA930CD00F5F0B
:100112001F4FF3CFFFCF6096FFCF17D0D898D99853
:10012200DA9ADA9805C011D0D89AD998DA9ADA9878
:1001320021960895EFE7E7BBD898D99ADA9ADA9828
:10014200B799FCCFEFEFE7BB0895F4DFE881E8BB96
:100152000895AC0FBD1F05900D928A95E1F70895A1
:00000001FF
