:0A0000000C9452000C9400000C94C4
:10000A0000000C9400000C9400000C9400000C9466
:10001A0000000C9400000C9400000C9400000C9456
:10002A0000000C9400000C9400000C9400000C9446
:10003A0000000C9400000C9400000C9400000C9436
:10004A0000000C9400000C94000001020304050651
:10005A000708090A000B0E0D0B001027E8036400BD
:10006A000A000100001000011000010080C0313DAB
:10007A005220323D57004C4F5720414452004849C4
:10008A004748204144520025640044415441004FEE
:10009A004B000200600176000000F894EE27ECBBEA
:1000AA00F1E0FBBFEBBFE5BFF8E1F1BDE1BD8DE0DB
:1000BA00A2E0BB27ED938A95E9F780E094E0A0E6F9
:1000CA00ED930197E9F7ECE9F0E0859195910097B6
:1000DA0061F0A591B59105901590BF01F0010590C9
:1000EA000D920197E1F7FB01F0CFEFE5EDBFE4E0F8
:1000FA00EEBFC0E6D1E00C94820060971FEFE0E00B
:10010A00EBBBEABBE8BBEFE0E7BBE0E0E5BBE4BB87
:10011A00E2BBE1BB0E94AE04E0E1EA930E940A045A
:10012A000E94A80356D01E2FE8E7F0E00E9441047F
:10013A00A12FE1E00E944E050E2EE2E00E944E053C
:10014A00E02119F046D01E2FF3CF0E94A8031130E8
:10015A00A9F4E0E8F0E00E9441040E944504ABD013
:10016A004E2E0E94A80394D00E2FFE010E944D0429
:10017A00FE01FA93EA930E94D8031AC0E0E8F0E07D
:10018A000E9441040E94450496D04E2E0E94A80364
:10019A00E4E9F0E00E9441048ED00E2F0E94A803E9
:1001AA000A936CD00E94A803E9E9F0E00E94410496
:1001BA0010D01E2FA12FEFEF0E9449050E2EEBE063
:1001CA000E944E05E02919F004D01E2FF3CFA8CFC4
:1001DA00FFCF2F978FE0A0E0B0E0E4E5F0E00E94C7
:1001EA006E051A930A930EE0E0EFE8BBE6B3E03F30
:1001FA0011F4EFEF3FC00E945E04E6B3E03F11F452
:10020A00EFEF38C010E0133050F5E12FF0E0DE01D7
:10021A001E96AE0FBF1FEC91E8BBE6B3E03FE9F0D4
:10022A00E6B3E07FE03E39F4E12FF0E0DE0112961A
:10023A00AE0FBF1F11C0E03D19F4DE01159609C0CB
:10024A00E03B19F4DE01189604C0E03731F4DE0110
:10025A001B96EE27A10FBE1F0C911F5FD4CFE0EFB4
:10026A00E8BBE6B3E03FE9F70E945E04E6B3E03F8D
:10027A00E9F7E02F19810881619608950E946404C4
:10028A00E881EA930E94E7040E94C2042196089535
:10029A001A930E9464040E94B304E1EAEA930E945A
:1002AA00E704E0E0EA930E94CC041E2F0E94C204F5
:1002BA00E12F1991089563970E9460050FEF30E0CE
:1002CA003330A8F50E94EE000E2F0F3F21F40E9452
:1002DA00EE000E2FFACF0A3009F43FEF0B3039F156
:1002EA00A32FE0E00E9449050E2EEFEF0E94490578
:1002FA00E02911F00E94A803A02FEAE00E944E050F
:10030A000E2EEBE00E944E05E02179F0FE013696B2
:10031A000E944D04FE013696FA93EA930E94D8038E
:10032A000E947004EA0FFB1F00833F5FC9CF315060
:10033A000E947004AE0FBF1F4C9155271AE0332F4D
:10034A003130A0F0E32FE150F0E0DE015696AE0F17
:10035A00BF1FAC911A9FF001F0E04E0F5F1FA12F53
:10036A00EAE0EA9FF0011E2F3150EACFFA010E941B
:10037A006705699608955F9BFECFECB108955D9B72
:10038A00FECFE881ECB9219608951A930A93AC81BD
:10039A00BD810E9453053097D9F0AA81BB810E9482
:1003AA0053058F01309749F00230E0E01E0778F0DC
:1003BA00F80131978F01ED93FC93AC81BD81ED91EA
:1003CA00FD913196FE93EE933197AE81A08304C0DE
:1003DA00EE81EA930E94C401198108812796089543
:1003EA0026970E94600510E0EA89FB893196EA8B1C
:1003FA00FB8B3197E4912E2FE03011F40C941F03FC
:10040A00E12FE03039F4253211F411E002C00E94E4
:10041A0075040FC1E130A9F4253219F40E9475045C
:10042A0007C112E040E000E02D3211F401E001C101
:10043A002B3211F44BE2FDC0203211F440E2F9C034
:10044A0002C0E23039F450E013E0203311F40068BE
:10045A00F0C004C0E33011F00C941E03203310F0F6
:10046A002A3308F009C0A52FEAE0EA9FF0015E2FBF
:10047A00E22FE0535E0FDDC0E22FE33631F40E9433
:10048A008004EC910E948704D3C0E33741F40E94B0
:10049A0080040E9492040E9420051E2F0AC0E037A1
:1004AA0061F40E9480040E9492040E942A051E2F71
:1004BA00086002600F7730E038C0E43611F0E936A0
:1004CA0011F4046002C0E53731F4E4E6F0E0EE83AB
:1004DA00FF8315E00DC0E83511F4086004C0E83761
:1004EA0011F00C941D03EEE6F0E0EE83FF8314E0B6
:1004FA0002FF15C00E9480040E945305EA87FB8709
:10050A00AA85BB8510972CF40E944505EA87FB87CC
:10051A004DE2403011F01F5F01C00B7F06C00E9400
:10052A0080040E945305EA87FB8700FD11C0151756
:10053A0078F407FF08C002FF04C00B7F242F115074
:10054A0001C020E301C020E20E9475045150EFCFA0
:10055A00312F01FF1AC03030B9F003FF08C0EE8115
:10056A00FF813196EE83FF833197E49105C0AE8116
:10057A00BF81ED91AE83BF83EA930E949904503004
:10058A0009F051503150E7CF4AC020E3EE81FF8194
:10059A003296EE83FF8332970E945705E887F987E0
:1005AA00E885F985AA85BB85AE17BF0750F02F5F8E
:1005BA00A885B985EA85FB85EA1BFB0BEA87FB87D9
:1005CA00EFCF2A3328F003FF02C0295F01C0295D5B
:1005DA0004FD1AC0213320F4A885B985119709F4BE
:1005EA0009C0531710F000FF01C013C020E207FF33
:1005FA000BC020E3006102FF07C00B7F4A930E94F1
:10060A009904503009F051500E947504503009F095
:10061A0051503150A885B985129708F0B6CF00FF1E
:10062A0007C0503029F05150E0E20E948704F9CF08
:10063A0010E0DACE0E94670564960895FF92F82EBC
:10064A0022971A930A93DE010E9441058D01DE0169
:10065A0016960E9441050E945305EA83FB83DE0138
:10066A0014960E9441050E945305FA93EA931A933D
:10067A000A93FE013696FA93EA93E0E0F0E0FA93E1
:10068A00EA930E94F501AA81BB81E0E0EC9319810B
:10069A0008812496FF900895FFE0FA95F1F70895EE
:1006AA00AAB3AF70AABBD99AD8980E945103DA9A12
:1006BA000E945103A9B3DA980E945103DA9A0E9460
:1006CA005103DA98A7FDF1CF0895A07FAB2BABBBFE
:1006DA00DA9A0E945103DA980E9451030895D99830
:1006EA00AAB3A76FAABBBBB3BF70A8810E946A0353
:1006FA00A881A2950E946A03D99A21960895DA9A46
:10070A000E945103E9B3DA980E945103E07F0895E9
:10071A000E9451030E948403AE2F0E948403D99839
:10072A00E295EA2B08950E945503E881F0E0E05A29
:10073A00FE4FE081A981EA0FEA930E94740379804F
:10074A006880229608950E945503E2E0EA930E9487
:10075A0074030E945503ECE0EA930E9474030E941A
:10076A005503E1E0EA930E947403E0E06E2E7E2EC8
:10077A000895EF93FF93A8816894AA3021F0E89432
:10078A007394971438F46394E0E0EA936A920E94AF
:10079A0098032EF085DFD89AA881AA93A0DFFF914B
:1007AA00EF91219608951A93A981BA81ED91A983AF
:1007BA00BA831E2FE03021F01A930E94BE03F4CFB1
:1007CA00188110C01A93E981FA813196E983FA8374
:1007DA003197E4911E2FE03021F01A930E94BE0354
:1007EA00F2CF188123960895AA27BB271197F1F70C
:1007FA000895D998AAB3A76FAABBBBB3BF70A88143
:10080A000E946A03D99A21960895DA98D89898800E
:10081A00E881E058E0936201E881E054E0936301E3
:10082A000E94A3040E94A3040E94A3040E94F90345
:10083A00E0E2EA930E94FE030E94F903E8E20E94C2
:10084A00A904E4E00E94A904E5E80E94A904AAB365
:10085A00AF70AABBD99A0E948D03E53011F0E0E08F
:10086A0009C00E945503E6E0EA930E9474030E94BD
:10087A00A803E1E021960895FA93EA930C94E7031A
:10088A000E9460015E2E0E94A803E8E8F0E0F4CF1F
:10089A00FA93EA93E1E9F0E0FA93EA93E02FFF276B
:1008AA00662777270E945B0584E00E942303289627
:1008BA000895E4E1F0E0FA93EA930C9435050E9476
:1008CA00B304E0EAEA930E94E7044A920E94E7042A
:1008DA005A920C94E704E32FF0E0DE01569608954D
:1008EA002A93EF85F889FA93EA93FE013F96FA93E1
:1008FA00EA930C94CA01A889B9891497A88BB98B71
:10090A0014960895EA93EF85F889FA93EA93FE011B
:10091A003F96FA93EA930C94CA010E945305EE8318
:10092A00FF83FA93EA930895EF85F889FA93EA9395
:10093A00FE013F96FA93EA930C94CA010E94F903C6
:10094A00E0E3EA930C94FE03EA930E9474030C9486
:10095A00F90391989098899A889815C088988998E7
:10096A00EE270000809B0895819B089504D0889A01
:10097A0002D0899AE1E062E007C0889A899A03D096
:10098A008998F9DF889863E06A95F1F7089578E025
:10099A008998F1DF819BFECFEEDF889480990894D5
:1009AA00899AF1DFEE1F7A9599F77991772311F4F5
:1009BA00889801C0889ADFDF8998E5DF899ADBDFAA
:1009CA008898D9CFE99178E0EE0F10F4889801C0A1
:1009DA00889AD9DF8998CFDF819BFECFCCDF899AAD
:1009EA007A9591F78898C7DF8998CDDFE1E08099F9
:1009FA00EE27899A0895E1E0F991F03310F0FA337D
:100A0A0008F0EE270895E1E0F991F03229F0F93083
:100A1A0010F0FE3008F0EE270895E1E0F991F05366
:100A2A0040F0FA3038F0FF75F750FA3010F0F03134
:100A3A0008F0EE270895A991B991EE27FF276D9145
:100A4A00662311F03196FBCF0895AA27BB27E991B7
:100A5A00F9910590002011F01196FBCFFD01089540
:100A6A00E991F991309639F08AEF90E00197F1F720
:100A7A00A8953197C9F708950024AF0DB01D0895C0
:100A8A00F195E195F0400895EA17E1E009F0EE27C3
:100A9A000895EA17E1E009F4EE270895ED91FC9133
:100AAA00119708950590F491E02D08957A936A9329
:100ABA00FA93EA9308955A934A933A932A931A9384
:100ACA000A9308955D814C813B812A8119810881AD
:100ADA000895AC0FBD1F05900D928A95E1F7089510
:00000001FF
