:0C0000000C942B000C9400000C940000E9
:10000C000C9400000C9400000C9400000C94000064
:10001C000C9400000C9400000C9400000C94000054
:10002C000C9400000C9400000C9400000C94000044
:10003C000C9400000C9400000C9400000C94000034
:10004C000C9400000C9400000000F894EE27ECBB1C
:10005C00F1E0FBBFEBBFE5BFF8E1F1BDE1BD8DE029
:10006C00A2E0BB27ED938A95E9F780E094E0A0E647
:10007C00ED930197E9F7E4E5F0E085919591009710
:10008C0061F0A591B59105901590BF01F001059017
:10009C000D920197E1F7FB01F0CFEFE5EDBFE4E046
:1000AC00EEBFC0E6D1E00C945B00E0E0EBBBEFEF01
:1000BC00EABBE0E0E8BBE7BBEFEFE5BBE4BBE0E0AD
:1000CC00E2BBE1BBEFE3EA9311D0E8EBEA9344D057
:1000DC00E0ECEA930BD026D010B3186B1F7B1A936D
:1000EC003BD0E6B3EA930AD0F7CFFFCF10D0E8812C
:1000FC00EBBBA898A998AA9AAA9807C008D0E8813F
:10010C00EBBBA89AA998AA9AAA9821960895EFE70A
:10011C00EABBA898A99AAA9AAA98CF99FCCFEFEF14
:10012C00EABB08951A930A9310E0183090F400E09B
:10013C00003468F4E12FE854EA93D8DFE02FE05C58
:10014C00EA93D4DFE0E0EA93D9DF0F5FF1CF1F5FD2
:10015C00ECCF099119910895C9DFE2E4EA93C6CF77
:00000001FF
