:080000000C942B000C9400008D
:100008000C9400000C9400000C9400000C94000068
:100018000C9400000C9400000C9400000C94000058
:100028000C9400000C9400000C9400000C94000048
:100038000C9400000C9400000C9400000C94000038
:100048000C9400000C9400000C9400000000F8943C
:10005800EE27ECBBF1E0FBBFEBBFE5BFF8E1F1BD7C
:10006800E1BD8DE0A2E0BB27ED938A95E9F780E03A
:1000780094E0A0E6ED930197E9F7E4E5F0E08591D7
:100088009591009761F0A591B59105901590BF01E4
:10009800F00105900D920197E1F7FB01F0CFEFE534
:1000A800EDBFE4E0EEBFC0E6D1E00C945B00E0E019
:1000B800EBBBEABBE8BBEFEFE7BBE0E0E5BBE4BBCB
:1000C800E2BBE1BB0E949A0059B2859903C010D0E7
:1000D800E8BB03C0E3B3EA9302D0F6CFFFCF1AD050
:1000E800E881EA930E94D3000E94AE002196089509
:1000F8001A9310D00E949F00E1EAEA930E94D3006D
:10010800E0E0EA930E94B8001E2F0E94AE00E12FA3
:10011800199108950E949F00E0EAEA930E94D30093
:100128004A920E94D3005A920C94D30091989098C6
:10013800899A889815C088988998EE270000809B2E
:100148000895819B089504D0889A02D0899AE1E0A5
:1001580062E007C0889A899A03D08998F9DF88985D
:1001680063E06A95F1F7089578E08998F1DF819B5B
:10017800FECFEEDF889480990894899AF1DFEE1F0C
:100188007A9599F77991772311F4889801C0889A1C
:10019800DFDF8998E5DF899ADBDF8898D9CFE99195
:1001A80078E0EE0F10F4889801C0889AD9DF899812
:1001B800CFDF819BFECFCCDF899A7A9591F788981B
:1001C800C7DF8998CDDFE1E08099EE27899A089505
:00000001FF
