:100000000C942F000C9400000C9400000C94000041
:100010000C9400000C9400000C9400000C94000060
:100020000C9400000C9400000C9400000C94000050
:100030000C9400000C9400000C9400000C94000040
:100040000C9400000C9400000C9400000C94000030
:100050000C940000C0006000300090000000F89494
:10006000EE27ECBBF1E0FBBFEBBFE5BFF8E1F1BD74
:10007000E1BD8DE0A2E0BB27ED938A95E9F780E032
:1000800094E0A0E6ED930197E9F7ECE5F0E08591C7
:100090009591009761F0A591B59105901590BF01DC
:1000A000F00105900D920197E1F7FB01F0CFEFE52C
:1000B000EDBFE4E0EEBFC0E6D1E00C945F0028970E
:1000C00088E0A0E0B0E0E4E5F0E00E94B100E0E00C
:1000D000EBBBEABBE8BBEFEFE7BBE0E0E2BBE1BBB9
:1000E00080990BC000E010E00430E0E01E0724F42B
:1000F00010D00F5F1F4FF8CF09C003E010E0005091
:10010000104024F006D001501040F9CFE9CF2896D6
:10011000FFCFE9B3F0E02E2F3F2F220F331FE22F46
:10012000F32F3496FA93EA930E94A100E02FF12F67
:10013000DE01EE0FFF1FAE0FBF1F0E94AD00E8BB38
:100140000895E991F991309639F08AEF90E001979E
:10015000F1F7A8953197C9F70895ED91FC911197A2
:100160000895AC0FBD1F05900D928A95E1F7089593
:00000001FF
