:0E0000000C9439000C9400000C9400000C9439
:10000E0000000C9400000C9400000C9400000C9462
:10001E0000000C9400000C9400000C9400000C9452
:10002E0000000C9400000C9400000C9400000C9442
:10003E0000000C9400000C9400000C9400000C9432
:10004E0000000C9400003F065B4F666D7D077F67D6
:10005E0039770102030405060708090A000B0E0D85
:10006E000B000000F894EE27ECBBF1E0FBBFEBBFFA
:10007E00E5BFF8E1F1BDE1BD8DE0A2E0BB27ED9358
:10008E008A95E9F780E094E0A0E6ED930197E9F711
:10009E00E0E7F0E085919591009761F0A591B5911B
:1000AE0005901590BF01F00105900D920197E1F7B3
:1000BE00FB01F0CFEFE5EDBFE4E0EEBFC0E6D1E02F
:1000CE000C9469002C978CE0A0E0B0E0E4E5F0E041
:1000DE000E94F000E0E0E8BBEFE0E7BBE0E0E2BB4F
:1000EE00EFEFE1BB13D00E2F0C3038F4E02FF0E021
:1000FE00DE01AE0FBF1FEC91E2BBE4E6F0E0FA9337
:10010E00EA930E94E400EECF2C96FFCF2F978FE05C
:10011E00A0E0B0E0E0E6F0E00E94F0001A930A934F
:10012E001FE0E0EF40D011F4EFE039C0E4E1F0E081
:10013E00FA93EA930E94E400E6B3E03F11F4EFE095
:10014E002EC000E0033040F5E02FF0E0DE011E96F9
:10015E00AE0FBF1FEC9127D0E9F0E6B3E07FE03E93
:10016E0041F4E02FF0E0DE011296AE0FBF1F1C919E
:10017E0011C0E03D21F4DE01159619D00BC0E03B15
:10018E0021F4DE01189613D005C0E03719F4DE0114
:10019E001B960DD00F5FD6CFE0EFE8BBE12F198194
:1001AE00088161960895E8BBE6B3E03F0895E02F1D
:1001BE00F0E0AE0FBF1F1C910895E991F9913096B2
:1001CE0039F08AEF90E00197F1F7A8953197C9F7CA
:1001DE000895AC0FBD1F05900D928A95E1F7089515
:00000001FF
