:0C0000000C942B000C9400000C940000E9
:10000C000C9400000C9400000C9400000C94000064
:10001C000C9400000C9400000C9400000C94000054
:10002C000C9400000C9400000C9400000C94000044
:10003C000C9400000C9400000C9400000C94000034
:10004C000C9400000C9400000000F894EE27ECBB1C
:10005C00F1E0FBBFEBBFE5BFF8E1F1BDE1BD8DE029
:10006C00A2E0BB27ED938A95E9F780E094E0A0E647
:10007C00ED930197E9F7E4E5F0E085919591009710
:10008C0061F0A591B59105901590BF01F001059017
:10009C000D920197E1F7FB01F0CFEFE5EDBFE4E046
:1000AC00EEBFC0E6D1E00C945B00E0E0EBBBEFEF01
:1000BC00EABBE1ECE8BBEFEFE7BBE3E0EBBBC19ADB
:1000CC0083E08A95F1F7C198E0E9EBBBC09883E037
:1000DC008A95F1F7C69883E08A95F1F7C69AE0E025
:1000EC00E5BBE4BBE2BBE1BBE3BFE2BFECBFEFBDF2
:1000FC00EEBDEDBDECBDE7BDE6BDEBBDEABDE9BDBA
:10010C00E8BDE2BDE5BDE4BDE3BDE5BFE4BFE9BFCD
:10011C00E0E8E8B9E0E0E0BFE0E0EBBBC19A83E0E7
:10012C008A95F1F7C198EABBC79883E08A95F1F7F5
:10013C0009B3C79AEFEFEABBE1E0EBBBC19A83E0EE
:10014C008A95F1F7C1980BBBC69883E08A95F1F7B5
:10015C00C69AE2E0EBBBC19A83E08A95F1F7C198AD
:10016C000BBBC69883E08A95F1F7C69AD5CFFFCF23
:00000001FF
